:100000000C9453020C949A020C949A020C94C11210
:100010000C949A020C949A020C949A020C949A02F0
:100020000C949A020C949A020C94F9230C94CD240B
:100030000C94A11F0C949A020C949A020C949A02AC
:100040000C949A020C949A020C949A020C949A02C0
:100050000C949A020C94EC1F0C949A020C949A0241
:100060000C949A020C949A020C949A020C949A02A0
:100070000C949A020C949A020C949A020C949A0290
:100080000C949A020C949A020C949A020C949A0280
:100090000C949A020C949A020C949A020C949A0270
:1000A0000C949A020C949A020C949A0235001E0049
:1000B0001F00200021002200000000002B0014007F
:1000C0001A0008001500170000000000E0000400FE
:1000D0001600070009000A0000000000E1001D00F2
:1000E0001B00060019000500000000002900E200C6
:1000F000E3002B5D2C000000000000002300240022
:100100002500260027002D002E002A001C001800C4
:100110000C00120013002F00300031000B000D0006
:100120000E000F0033003400000028001100100002
:10013000360037003800E500520001512A002A5DE0
:100140000000E7000000500051004F0029003A0075
:100150003B003C003D003E0000000000C35C295D08
:10016000C65CC85CCA5C0000000000003900C45CCA
:10017000C75CC95CCB5C000000000000010000000F
:10018000000000000000000000000000000001006E
:100190000100010000000000000000003F004000DE
:1001A000410042004300440045004C0000000000B4
:1001B000000000000000000000000000000000003F
:1001C000000000000000000000000000000000002F
:1001D000BC00BB00AE0001004B0001000000350078
:1001E0000000000000004A004E004D0032190A00D5
:1001F000047F3F1F643214643214783C1E1E140ABC
:10020000052223252628292A2C2D2F303233353656
:10021000383A3B3D3E4042434547494A4C4E505197
:10022000535557595A5C5E6062646668696B6D6FBE
:1002300071737577797B7D7F81838587898A8C8EC1
:1002400090929496989A9C9E9FA1A3A5A7A8AAACC9
:10025000AEAFB1B3B4B6B8B9BBBCBEBFC1C2C3C503
:10026000C6C7C9CACBCCCDCED0D1D2D2D3D4D5D6A5
:10027000D7D7D8D9D9DADADBDBDBDCDCDCDCDCDDD8
:10028000DDDDDDDCDCDCDCDCDBDBDBDADAD9D9D8BC
:10029000D7D7D6D5D4D3D2D2D1D0CECDCCCBCAC954
:1002A000C7C6C5C3C2C1BFBEBCBBB9B8B6B4B3B183
:1002B000AFAEACAAA8A7A5A3A19F9E9C9A9896941E
:1002C00092908E8C8A89878583817F7D7B797775F3
:1002D00073716F6D6B6968666462605E5C5A5957D2
:1002E000555351504E4C4A4947454342403E3D3B91
:1002F0003A3836353332302F2D2C2A29282625231B
:1003000022FFAA7F55400001010101010101010105
:1003100002020202020202020203030303030303B6
:100320000304040404040404050505050506060683
:100330000606070707070708080808090909090A40
:100340000A0A0B0B0B0C0C0C0D0D0D0E0E0E0F0FE5
:100350000F10101111111212131314141515161673
:100360001717181819191A1A1B1B1C1D1D1E1E1FE2
:100370002020212222232424252626272829292A31
:100380002B2C2D2D2E2F3031323233343536373859
:10039000393A3B3C3D3E3F40414243444546474855
:1003A000494A4C4D4E4F50515354555658595A5B2B
:1003B0005D5E5F616264656668696B6C6D6F7072CB
:1003C000737577787A7B7D7E8082838587888A8C37
:1003D0008E8F91939596989A9C9EA0A2A3A5A7A96B
:1003E000ABADAFB1B3B5B7BABCBEC0C2C4C6C9CB62
:1003F000CDCFD1D4D6D8DBDDDFE2E4E7E9EBEEF018
:10040000F3F5F8FAFDFF0403300000000E034D0081
:1004100069006E00740036003000000010034500D3
:100420007500630061006C0079006E000000040339
:10043000090409022200010100A0FA0904000001D8
:10044000030101000921110100012240000705817B
:100450000308000A1201100100000008EDFE000070
:1004600001000102030105010906A101050719E0C8
:1004700029E7150025019508750181029501750888
:1004800081010507190029FF150026FF0095067553
:100490000881000508190129059505750191029546
:1004A0000175039101C011241FBECFEFDAE0DEBF5A
:1004B000CDBF04B603FE27C08091AA029091AB0283
:1004C000A091AC02B091AD028730904BA740B04BE9
:1004D000D1F41092AA021092AB021092AC021092C8
:1004E000AD0214BE84B7877F84BF0FB6F894A89579
:1004F00080916000886180936000109260000FBE60
:10050000E0E0F8E3099511E0A0E0B1E0E4E3F0E514
:1005100002C005900D92A237B107D9F722E0A2E7F9
:10052000B1E001C01D92AA3AB207E1F70E9447214B
:100530000C94DC270C940000611107C0FC0182813F
:10054000882331F085EE0E94021590E080E0089546
:1005500085EE0E947215F9CFFB018A322DE59207D4
:10056000C1F08B322DE5920729F189329D4579F44E
:100570008281882361F00E9427080E94D90D809112
:100580007A02869590E0909363028093620281E004
:1005900008958281882339F08AE80E94021580E953
:1005A0000E940215F4CF8AE80E94721580E90E9429
:1005B0007215EDCF8281882329F08BE80E94021505
:1005C00081E9EECF8BE80E94721581E9F0CF0895A2
:1005D0000895089581E008950C94AC0208950C9458
:1005E000EE021F93CF93DF9300D000D00F92CDB7D0
:1005F000DEB749835A836B833091D60189819A8112
:1006000031111DC06623B9F02223A9F00E940B1DF1
:10061000182F682F89819A810E94B61C69817A817E
:10062000812F0F900F900F900F900F90DF91CF912F
:100630001F910C94A3030E94E31C182FEFCF0E947C
:100640000B1D69817A81EDCFFC01262F40815181FC
:100650006281738184810C94F102CF93DF93EC016A
:1006600060E00E942403BE01DF91CF910C94EF0261
:100670000E944F1E811102C00E94F31E0C948D0532
:100680000C948F0508950E941D180E9442032FEFBD
:1006900084E39CE0215080409040E1F700C00000DE
:1006A0000C9410200F931F93CF93DF93EC0161E024
:1006B0000E9424038C01BE010E94EC02882359F1A0
:1006C000BE01C8010E946C10882329F1BE01C80137
:1006D0000E94BE108823F9F0BE01C8010E94E111FA
:1006E0008823C9F0BE01C8010E94460F882399F0F3
:1006F0008A81882339F001158CE5180751F00F3DE8
:100700001C4579F0CE01DF91CF911F910F910C9490
:10071000EA020E94430380E0DF91CF911F910F9185
:1007200008950E94F31EF7CF0C94E90281E008952A
:100730000C949603CF93C82F0E9494038C2FCF91D3
:100740000C9498030895E72FF0E09AE0899FE00D5C
:10075000F11D112483E0EE0FFF1F8A95E1F7E60FEC
:10076000F11DEE0FFF1FE455FF4F85919491089501
:10077000FC01EE0FFF1FE451FE4F85919491089507
:10078000CF93DF930E94A3030E94B304EC01811571
:1007900021E59207D0F5811530E5930708F096C062
:1007A00081159042F8F4C11581E0D807B8F4C03E35
:1007B000D10588F4C03CD10508F07BC0C130D1051B
:1007C00069F0209759F0CE010497813A910530F0F5
:1007D000D0E0C0E003C0C83ED105D0F7CE01DF9124
:1007E000CF910895C11590E4D90708F06CC0CE01EF
:1007F0009F70C11520E3D20708F45EC0CE0199278F
:10080000D3FF5EC0EC01D86CE9CF811535E59307C5
:1008100000F5811544E5940708F08DC0C11583E506
:10082000D80708F074C0C11592E5D90708F46AC06A
:10083000CE018370992721E030E002C0220F331FE0
:100840008A95E2F7C695C69580E2C89FE00111241B
:1008500055C0811529E59207A0F4811538E5930765
:1008600008F06EC0811546E5940708F0B1CF0E94EC
:100870004A05C82FD0E0DC2FCC27CC27DF71D0620F
:10088000ADCFC1158AE5D80708F45FC0CE019056F8
:100890008115904208F09CCF8D2F8F710E944A05E0
:1008A00090E0982F882788279F719C012C2BE901C5
:1008B000E6CFCE01805C91090E94B803EC018ECF97
:1008C000EC01D06C8BCFDF70D06A88CFE4E09695D6
:1008D0008795EA95E1F783702C2F2695269523704E
:1008E00040E2249F90011124382B8C2F8370C1E0AB
:1008F000D0E002C0CC0FDD1F8A95E2F7C22BD32BCC
:10090000DC686CCFDC2FCC27C16FD06A67CFCE01FB
:100910008370992721E030E002C0220F331F8A95AF
:10092000E2F7C695C69590E2C99FE0011124C22B5B
:10093000D32BDA6853CFD82FCC27C46FD06A4ECFD1
:10094000D82FCC27C06FD06A49CF8C2F8F700E94D0
:100950004A0534E0D695C7953A95E1F7CF709C2FBC
:10096000EC01D0693BCF82389105B1F1B0F481330D
:10097000910509F475C048F48932910509F469C0FC
:100980008A32910509F473C008958533910509F4FD
:1009900059C08933910501F10895833E9105A9F16C
:1009A00038F4803E9105F9F0823E910549F10895B1
:1009B000863E9105A9F1873E9105C9F1843E9105D6
:1009C00019F520919C0221FF1FC080919B0284FD9C
:1009D00014C087EE90E0089520919B022370A1F04F
:1009E00080EE90E0089520919B0220FD47C0309159
:1009F0009C0230FF09C024FF44C090E080E004C0A6
:100A000020919B0222FDF7CF089520919B0222FDA9
:100A10003BC030919C0230FDE3CF24FFF5CFEDCFFA
:100A200020919B0223FFF0CF24FDE7CFD2CF20916E
:100A30009B0223FD2CC030919C0231FFEECF84EE4F
:100A400090E0089520919B0225FFDECF89E290E09F
:100A5000089520919B0225FFD7CF85E390E008956C
:100A600020919B0226FFD0CF8AE290E0089520914A
:100A70009B0226FFC9CF81E390E0089589E390E0CF
:100A8000089583EE90E0089582EE90E0089586EE5A
:100A900090E0089590919B0292FF06C0282F287144
:100AA0002830F9F4877F846093FF06C0282F2871CF
:100AB0002831F1F4877E846120919C0220FF06C0DA
:100AC000382F38713830D9F4877F816021FF06C014
:100AD000282F28712831D1F4877E816194FD877E8B
:100AE0000895282F24712430F9F68B7F8860DCCF9D
:100AF000282F2471243101F78B7E8861DDCF382FB8
:100B00003171313019F78E7F8860E0CF282F217145
:100B1000213121F78E7E8861E1CF0C94E7020C949D
:100B2000E802E82FF0E0E259FD4F80810895089532
:100B300080EA8A95F1F70895F894E82FE295EF702E
:100B4000F0E031A1282F2F7081E090E001C0880FE4
:100B50002A95EAF7982F9095932391A392A1892B38
:100B600082A3789408950895CF93DF930E94EC06B2
:100B7000809104018091040195E0811190E09093AF
:100B8000790285E0891B8093780286E60E949C05A5
:100B900087E90E949C0586EC0E949C0584E30E94E4
:100BA0009C0585E30E949C05C5E3D1E089910E94E4
:100BB0009C0581E0CD33D807C9F7E4E6F2E0AEE664
:100BC000B2E011921D9282E0EE36F807D1F785E08F
:100BD0000E9494060E943803DF91CF910C94F60690
:100BE0000E94CB068823F9F08091780290E0825928
:100BF0009D4F0E942607811113C0809172018F5F63
:100C000080937201863050F0E0917802F0E0E25972
:100C1000FD4F108211821282138214820C944003C1
:100C200010927201FBCF8091790290E082599D4F22
:100C30000E9443070C94B305CF92DF92EF92FF928C
:100C40000F931F93CF93DF93CDE3D1E004E612E03F
:100C5000D12CEE24E394F12C8991F894E82FE295BD
:100C6000EF70F0E021A18F70A70102C0440F551F63
:100C70008A95E2F7CA01922F982B91A392A18095B1
:100C8000892382A378940E949805E5E3F1E030E09F
:100C900020E0C12C4191A42FA295AF70B0E09096B6
:100CA0008C9190E04F7002C0959587954A95E2F738
:100CB00080FD36C08E2D022E01C0880F0A94EAF7FF
:100CC000C82A2F5F3F4F2830310521F7FE013197A9
:100CD00080810E949C05F8018081C81619F1C082AC
:100CE00081E0D82A0F5F1F4FF1E0C234DF0709F01F
:100CF000B3CF6091790270E062597D4F2D2D45E0B0
:100D000084E692E00E9495060E94F0058D2DDF9109
:100D1000CF911F910F91FF90EF90DF90CF900895AA
:100D200080E0CECF80E0DDCF0895FF920F931F9338
:100D3000CF93DF93F82E092F162FD72FC42F2223FE
:100D400049F081E0809375010E94D11F9093740156
:100D500080937301809175018823A1F080917301C4
:100D6000909174010E94DD1F069760F0EF2DF02F27
:100D7000A12FBD2FCE0FDF2FD11DEC17FD0741F4A2
:100D800010927501DF91CF911F910F91FF900895FF
:100D900081918D93F2CF80917601811111C0809164
:100DA000D80080618093D8008AE18A95F1F700C06D
:100DB0009091D900892F817090FF82E08093760115
:100DC00081E090917601913009F080E008950E94D1
:100DD000CB0691E0892708950E94E70680930401DD
:100DE0000E94CB0681110C94FD0608950E94CB064B
:100DF000811102C00C940307089562E070E085E061
:100E000091E00C946E1262E070E085E091E00C9449
:100E100077120E940D0D882361F08EE791E00E9409
:100E2000130D81E090E00E945013892B11F40C9473
:100E3000100D089580917D01883039F460E08EE7CF
:100E400091E00E94230E10927D010895CF93DF93CD
:100E5000D82FC92F0E94090790E080E00E9450130C
:100E6000009779F4ED2FFC2FDC01A858BE4F2C9190
:100E70002193019685309105B9F781E0DF91CF91FB
:100E8000089580E0FBCFCF93DF93D82FC92F0E9426
:100E90001A07ED2FFC2F90E080E02191DC01A8588B
:100EA000BE4F2C93019685309105B9F7DF91CF9114
:100EB0000895EF92FF920F931F93CF93DF93EB016F
:100EC000E82FD11110C0442321F0F0E0EA5FFC4F7D
:100ED000E4916E2F7E2F8E2FDF91CF911F910F9176
:100EE000FF90EF9008950D2F10E0282F30E044235D
:100EF00029F02A5F3C4FF901249130E0F6E0CF9FC2
:100F0000C0011124EFEFF0E0BF010E948B26AB017E
:100F10008C2F90E0880F991FA5E5A49FB001A59F95
:100F2000700D1124861B970B982F990F980FBF01F6
:100F3000601B710B629FD001639FB00D729FB00D5B
:100F400011248B2F9D9FB0011124672F7727EF016C
:100F5000C61BD70BBE01629FE001639FD00D729F3D
:100F6000D00D11247F01E91AF108E09EB001E19E45
:100F7000700DF09E700D1124672F7727E61BF70B7D
:100F8000E29F8001E39F100DF29F100D1124E12FCD
:100F9000722F4230510599F048F44115510569F01E
:100FA0004130510581F0EB2F8D2F07C044305105A2
:100FB00069F080F046305105B1F76E2F8DCFE22FEA
:100FC0007B2F812FFACFE22F7D2FF7CFEB2F822FB0
:100FD000712FF3CF7B2F822FED2FEFCF41E00C94B9
:100FE000590708950C94EE07CF93DF93762FE9010C
:100FF000682F842F0E94F207798368838A83DF91A8
:10100000CF91089580917A02982F9E7F29F4817064
:10101000826080937A0208958635E8F38170846552
:10102000F8CF88E090E00C947D27CF92DF92EF928A
:10103000FF926B017C010E940208B701A60188E0C3
:1010400090E0FF90EF90DF90CF900C949B27EAE721
:10105000F2E083E0808311828FEF828383831482A6
:10106000ABEBB1E012968C911297836012968C9341
:1010700060817181828193810C94150880917A023C
:1010800080FF02C08695089580E0089590917E02C9
:10109000933018F49F5F90937E02882351F0609103
:1010A0007A0270917B0280917C0290917D020C9477
:1010B0001508089581E00C94460890917E029923CA
:1010C00019F0915090937E02882351F060917A023A
:1010D00070917B0280917C0290917D020C941508A6
:1010E000089581E00C945D0870E00C94B50F609158
:1010F000190180917A0280FF0AC08091180123E0D3
:10110000829FC001112481589D4F0C9474088091D6
:101110001A0190911B0123E0829FF0011124E158F4
:10112000FD4F891750F71182108212828F5F33961C
:10113000F8CF90917A0290FF14C090911A012091FB
:101140001B0133E0939FF0011124E158FD4F9217EA
:1011500010F00C9477088183608342839F5F3396FD
:10116000F6CF0895CF93DF9300D00F92CDB7DEB7BF
:1011700090917A0290FF0AC09E012F5F3F4F0E941C
:10118000F4074B8169818A810E9499080F900F9022
:101190000F90DF91CF910895CF93DF93EC01EC8115
:1011A000F0E0EF5FFD4F4491EAE7F2E06281818178
:1011B0000E94B2088C818F5F8C83DF91CF9108955C
:1011C000CF93DF93EC01EAE7F2E0438162818C8107
:1011D0000E94B2088C818F5F8C83DF91CF9108953C
:1011E0000F931F93CF93DF9300D00F92CDB7DEB74D
:1011F0008C018091860181110AC09E012F5F3F4FB3
:101200004FEF6FEF0E94F4078A8180938601F80107
:101210006481613069F08091860140E0662361F06D
:1012200040E0623011F44091860180E060E004C04B
:101230006091860140E080E00E949908F801848175
:1012400090E0019663E070E00E949F2684830F90F7
:101250000F900F90DF91CF911F910F910895AF9252
:10126000BF92CF92DF92EF92FF920F931F93CF9393
:10127000DF9300D00F92CDB7DEB7182FF62E042FD4
:10128000E22E90917A0290FF3AC0E92FE695AE2FB8
:10129000B0E0A95BBE4F8C918093BB019E7F9230E2
:1012A000E1F59E012F5F3F4F812F0E94F4074B8194
:1012B00069818A810E94990880917B02811308C00C
:1012C00080917C028F1104C080917D02801729F0EB
:1012D0008091BD0182608093BD0110937B02F092EA
:1012E0007C0200937D02EE2051F060917A027091B1
:1012F0007B0280917C0290917D020E9415080F90E4
:101300000F900F90DF91CF911F910F91FF90EF9071
:10131000DF90CF90BF90AF900895823019F4009184
:101320007D02CACF863019F410917B02C5CF893077
:10133000D9F3893109F6E9518E2F8170D82EE695BF
:10134000F0E0EF5FFC4FA590B490C12CBB246091FE
:101350001C01C61618F00E947708AECF2C2D30E085
:10136000A29EC001A39E900DB29E900D112470E02C
:101370000E948B26812FD11013C0860F40911A0135
:10138000420F532F511D9A01220F331F240F351F77
:1013900021583D4F402F6F2D0E94F407C394D7CFA3
:1013A000861BECCFEAE7F2E09181282F438162812E
:1013B0008AE0890F0C942F0981E00C94D209EAE7A6
:1013C000F2E09181282F4381628186EF890F0C948E
:1013D0002F0981E00C94DF09EAE7F2E0628121E164
:1013E000620F08F46FEF282F438181810C942F093D
:1013F00081E00C94EC09EAE7F2E0628121E1621BF2
:1014000008F460E0282F438181810C942F0981E04A
:101410000C94FB09EAE7F2E0438121E1420F08F472
:101420004FEF282F628181810C942F0981E00C9469
:101430000A0AEAE7F2E0438121E1421B08F440E0B6
:10144000282F628181810C942F0981E00C94190A64
:1014500020E00C942F09EF92FF921F93CF93DF931C
:10146000EC0110E0EE24EA94F12C60911C011617B7
:1014700070F00E9477089A818C8190FF27C08F5F5F
:101480008C83DF91CF911F91FF90EF900895209171
:101490001A01422F410F5527551FCA019A01220FE9
:1014A000331F280F391F21583D4F70E0C7010E949C
:1014B0009F26962F8C8140917D0260917C02199F1E
:1014C000800D11240E94F4071F5FCFCF8150D8CF29
:1014D0009F92AF92BF92CF92DF92EF92FF920F93C3
:1014E0001F93CF93DF93EC018A81BB24BA9480FDD4
:1014F00002C0BB24B3948C8181110AC081E0B81270
:1015000027C080911C0181508093880181E08C83E9
:10151000A12C80911C01A816F0F00E947708809100
:10152000880191E0B9125DC0811156C080911C0103
:101530008150809388011C82DF91CF911F910F9180
:10154000FF90EF90DF90CF90BF90AF909F90089565
:1015500010928801DBCF00911A01CA2CD12C0C0DFE
:101560001D2D111DC801880F991F080F191F015843
:101570001D4FF80111821082128234E0E32EF12C0B
:10158000912C80918801890D893004F18770082E93
:10159000000C990BC816D90691F480917D028E9D9E
:1015A000A0018F9D500D1124559547955595479550
:1015B000980160917C0280917B020E94F4079B0C51
:1015C000F1E0EF1AF108E9F6A394A3CF87FFDFCF8C
:1015D00090911C01890FDBCF815080938801BC82E0
:1015E000ABCF90E0019660911C0170E00E949F26B5
:1015F000809388018C83A0CFEF92FF920F931F936B
:10160000CF93DF93EC018C81811109C081E08C8341
:101610001092870192E090931701809316018091B8
:101620001A0190911B0123E0829FF0011124E158DF
:10163000FD4F891768F110E003E060911C01161757
:1016400068F10E9477088091160120918701280F88
:101650002093870190911701980F90931701191605
:1016600054F4022E000C330B40911C014150550BD9
:101670002417350734F0819580931601813009F4E1
:101680001C82DF91CF911F910F91FF90EF900895F1
:101690001182108212828F5F3396CBCFE12EF12C14
:1016A00070E0C7010E949F2620911A01820F482FE7
:1016B00050E020918701022E000C330BE216F30656
:1016C000BCF020911701022E000C330B2E153F05A4
:1016D0007CF0809F9001112421583D4F40917D0264
:1016E00060917C0280917B020E94F4071F5FA5CF6E
:1016F000FA01EE0FFF1FE40FF51FE158FD4F1182B5
:1017000010821282F3CF8F929F92AF92BF92CF92AC
:10171000DF92EF92FF920F931F93CF93DF93EC0131
:101720004C81042F10E09801D8010E94E3269B0110
:10173000AC010E94F9264B015C01E0E2F0E0E01B05
:10174000F10BA5E5B0E0AC019B010E94F9266B010D
:101750007C019F01DF010E94DB269B01AC010E94FE
:1017600004279B01AC01280D391D4A1D5B1DC701D3
:10177000B6010E94B326F22E822F90E039E23F1587
:1017800060F143E0249F9001112435952795122F95
:10179000109500E085E5E82EEF1880911C010817F0
:1017A00058F10E9477089C8181E0992319F09032CA
:1017B00019F48FEF8093150180911501890F8C83A7
:1017C000DF91CF911F910F91FF90EF90DF90CF901D
:1017D000BF90AF909F908F90089525E530E0B901BC
:1017E000681B790B9B01220F331F260F371F37FF12
:1017F000CCCF2F5F3F4FC9CF8E2D01FD8F2D209174
:101800001A01622F600F7727771F9B01220F331F6A
:10181000260F371F21583D4F412F60917C020E94B7
:10182000F4070F5FBACF0F931F93CF93DF93EC01B1
:1018300010E000E090911C019017110609F06CF483
:101840000E9477088C8190E00196817099278C83A3
:10185000DF91CF911F910F91089520911A01A80156
:10186000420F511D9A01220F331F240F351F21589B
:101870003D4F4C8160917C0280917B029695901740
:10188000110651F04CF0442349F040917D020E9432
:10189000F4070F5F1F4FCECF4423B9F340E0F7CFDB
:1018A0008F929F92AF92BF92CF92DF92EF92FF9270
:1018B0000F931F93CF93DF93FC01B280948081E05C
:1018C000848300E015E05BE4A52E88248394EE2455
:1018D000EA94F12C7BE4C72ED12C80911C010817CF
:1018E00070F0DF91CF911F910F91FF90EF90DF90FB
:1018F000CF90BF90AF909F908F900C947708C02F9F
:10190000D0E01C9FF0011D9FF00D1124E457FE4F05
:1019100091101CC01382128220911A01CE01820FF5
:10192000911D9C01220F331F280F391F21583D4F55
:101930001C9FF0011D9FF00D1124E457FE4F4281C2
:10194000618180810E94F4070F5FC7CF238122232A
:1019500079F12150238334818A2D821B311101C0FA
:10196000822F1C9FF0011D9FF00D1124E457FE4FA4
:1019700090917D02899FC0011124B6010E948B269F
:101980006283211104C0332311F01482A38222E068
:101990002B1510F21C9FF0011D9FF00D1124E45730
:1019A000FE4F80917B02808380917C028183B4CF43
:1019B0000E945827823091400CF0AECF82E08B1508
:1019C00030F50E945827B7010E949F261C9FF00106
:1019D0001D9FF00D1124E457FE4F808322E02B154C
:1019E000C8F40E94582720917C022695622F70E04F
:1019F0000E949F26280F1C9FF0011D9FF00D1124AF
:101A0000E457FE4F21831282A382848285CF809186
:101A10007B02DCCF20917C02EECF8091BD01089546
:101A20001092BD01089525E0EAE7F2E0DC010190A3
:101A30000D922A95E1F72091BB013091BC014091B4
:101A4000BD01FC012583368347830895EBEBF1E06C
:101A500011828281846082830895EAE7F2E08081C6
:101A60008E7F80830E94260DEBEBF1E08281816006
:101A700082832FEF80E792E0215080409040E1F791
:101A800000C000000C947708EAE7F2E080818E7FC6
:101A9000808360817181828193810E9415080E94F8
:101AA000260DEBEBF1E08281816082832FEF80E7EE
:101AB00092E0215080409040E1F700C000000C947B
:101AC000770860917A02669570E04BE050E08DE116
:101AD00091E00E946827892B19F481E08093BC0172
:101AE0000E94D11F9093B5018093B4018091BD01F4
:101AF00084608093BD01089590917A0290FF3AC06E
:101B0000917081112DC0926090937A028091BD01F5
:101B100081608093BD01662351F060917A027091DB
:101B20007B0280917C0290917D020E941508609159
:101B30007A02669570E04BE050E08DE191E00E9402
:101B40006827892BA1F00E94260D81E08093B701C0
:101B500040917D0260917C0280917B020C94280A66
:101B60008B3210F09465D0CF880F982BCDCF0E9488
:101B7000610DEBCF0895682F90917A02969581E0E0
:101B8000890F8B3208F081E00C947C0D81E00C947D
:101B9000BB0D682F90917A0296958FEF890F09F40B
:101BA0008AE20C947C0D81E00C94C90D61E00C94E8
:101BB0007C0DEAE7F2E080818160808386950C9459
:101BC000D60D80917A0280FD0C94440D0C94D90DB1
:101BD00060E00C947C0D8091BA01811133C00E94A9
:101BE0004F1E811104C00E94F31E0E9427080E940C
:101BF000110860937A0270937B0280937C02909329
:101C00007D028091BD0183608093BD016E7F61F490
:101C10000E9427080E94110860937A0270937B0249
:101C200080937C0290937D020E9402080E94260D00
:101C300080917A0280FF03C086950E94E80D81E0C2
:101C40008093BA0108951F93CF93DF93EC01162F71
:101C50008F8180FF0CC0888180FF24C080917A0230
:101C6000816080937A02888186950E947C0D8F81A5
:101C700081FF06C0212F4B816A8189810E942F0933
:101C80008F8182FF05C08E81882379F00E94610DCB
:101C90008F8183FF03C081E08093B701DF91CF91F3
:101CA0001F9108950E942D0DE2CF0E94260DF0CFC6
:101CB000EF92FF920F931F93CF93DF938091BC011C
:101CC000882309F468C08091BB01E0917A02E6950F
:101CD000E81BE093B601823009F064C0F0E0E35005
:101CE000FE4FE491CE2FD0E00CEC18E08091B701CC
:101CF000882389F01092B7010E94D11F9E01209580
:101D00003095820F931F9093B5018093B401109288
:101D1000B9011092B8018091B4019091B5010E946F
:101D2000DD1F8C179D07B8F180918B018823B1F0DE
:101D300010928B018091890190918A010E94DD1F90
:101D40008033954758F00E94D11F90938A01809369
:101D500089018091BD0188608093BD01E090B80148
:101D6000F090B901E091B401F091B501CE0FDF1F01
:101D7000D093B501C093B40184EB91E0F8010995CB
:101D80008091B8019091B901892B29F4EF2819F0BD
:101D900081E080938B01DF91CF911F910F91FF9094
:101DA000EF900895863049F4F0E0E650FE4FE4915C
:101DB000CE2FD0E000EE18E099CF893051F4E695AF
:101DC000F0E0E950FE4FE491CE2FD0E00BE21AE0B4
:101DD0008DCF8F3051F4E695F0E0EC50FE4FE4915A
:101DE000CE2FD0E008E61AE081CF853149F4F0E04B
:101DF000EF50FE4FE491CE2FD0E00CEF1AE076CFFB
:101E0000C8E2D0E003E81BE0883109F46FCF8332E9
:101E100039F4EFEEF1E0C591D49100EF18E066CF10
:101E2000C4EFD1E003E11CE0843209F45FCFC0EDE0
:101E3000D7E001EF17E0853209F058CF8E2F63E02D
:101E40000E947F26E92FF0E0E451FE4FE491CE2F6F
:101E5000D0E000E51CE04ACFFA01811101C0FB018E
:101E60000994CF93DF93C82FD62F0E943E088C177A
:101E700040F00E943E088D1720F4DF91CF910C9422
:101E8000C60D8C2FDF91CF910C94D60D1F93CF935D
:101E9000DF93EC01FB011281111110C00E94A01D03
:101EA0008272FE01E35CFC45E431F10508F05BC0A1
:101EB000E252F84D0C94D5260E94E10D812FDF915E
:101EC000CF911F91089543ED5DE066EC7DE00E94A7
:101ED0002C0FF4CF46EC5DE063ED7DE0F8CF49EEEA
:101EE00059E06CED79E0F3CF4CED59E069EE79E023
:101EF000EECF47E05AE068EF79E0E9CF48EF59E0EC
:101F000067E07AE0E4CF45E25AE066E17AE0DFCFCD
:101F100046E15AE065E27AE0DACF41E758E06AE567
:101F200078E0D5CF4AE558E061E778E0D0CF81E0AE
:101F30000E94D60DC3CF65E082E00E94310FBECF74
:101F400068E086E0FACF6EE089E0F7CF64E18FE0E9
:101F5000F4CF67E185E1F1CF88E1EACF62E289E180
:101F6000ECCF83E2E5CF11E0A9CF539A4BB1477F85
:101F70005BB15860EFB7F8949B01220F331F260F17
:101F8000371F280F391F2817390741F4EFBF8FE596
:101F900094E00197F1F700C000000895DC016D9115
:101FA000CD0178E05BB9000000C067FF4BB9660F58
:101FB000000000C000C000C04BB900C07A9591F786
:101FC000E2CFAF92BF92CF92DF92EF92FF920F9348
:101FD0001F93CF93DF937C015B01C42FD22FFC01B1
:101FE00082818823F9F04093C0010E94D11F909311
:101FF000BF018093BE0180E28C0F883008F061C081
:10200000C77081E001C0880FCA95EAF7DF91CF91D0
:102010001F910F91FF90EF90DF90CF90BF90AF9006
:102020000C94D4151091C001141340C08091BE01CE
:102030009091BF010E94DD1F6C01B701C5010E9494
:10204000931AC816D90690F5C0E2CD0F1D17B9F046
:1020500080E2810F883040F4177081E001C0880F62
:102060001A95EAF70E94DB15C83048F481E09D2FED
:10207000977001C0880F9A95EAF70E94D415802FB7
:102080000E94C115C830E8F4D77081E001C0880F04
:10209000DA95EAF7DF91CF911F910F91FF90EF90C2
:1020A000DF90CF90BF90AF900C94DB1580E28C0F47
:1020B000883038F4C77081E001C0880FCA95EAF70C
:1020C000E9CFDF91CF911F910F91FF90EF90DF90BB
:1020D000CF90BF90AF9008950F939C01CB01243F08
:1020E0004CE5340759F1A8F4293DFCE53F0701F11F
:1020F0002A3D4CE53407D1F1283D3C4591F406E2F8
:1021000021EE41EE68ED7CE50E94E10F80E00F9149
:102110000895263FFCE53F07E9F0B0F0273F3C4536
:10212000F9F0FC018281882339F11092C001EFCFD0
:1021300007E225EE45EE69ED7CE5E6CF06E221EE0D
:1021400040EE64EF7CE5E0CF07E225EE44EE65EF7C
:102150007CE5DACF06E221EE42EE66EF7CE5D4CFF5
:1021600007E225EE46EE67EF7CE5CECF08E221E000
:1021700045EE6AED7CE5C8CF81E0C9CFCF93DF9310
:10218000EC01FB018281882309F419C1C230FCE50E
:10219000DF07C0F1C6319CE5D90730F09E012B5F07
:1021A0003C452930310570F50E94621E90939C02D7
:1021B00080939B02C031ECE5DE0709F4CFC008F044
:1021C0005BC0C8308CE5D80709F4B6C088F5C430C8
:1021D000ECE5DE0709F4A8C0C0F4C2308CE5D807EE
:1021E00009F49CC080919B028260C330DC4509F4F5
:1021F00098C080919B0290919C020E94701E0E9448
:102200001D1880E0DF91CF91089580919B0280613D
:10221000C630ECE5DE0709F484C080919B0288603B
:10222000C730DC4508F47DC080919B02806279C094
:10223000CC308CE5D80709F489C070F480919B02FA
:102240008C60CA30ECE5DE0709F46BC008F478C096
:1022500080919B028E7F65C0CE308CE5D80709F453
:1022600079C080919B028B7FCF30DC4508F459C048
:1022700080919B028F7E55C0CC3FECE5DE0709F4D0
:1022800057C030F5C3318CE5D80709F46FC078F436
:10229000C131ECE5DE0709F465C0C231DC4509F067
:1022A000A8CF0E941D1880919B028F773AC0C5313C
:1022B0008CE5D80709F462C008F476C080919C02CE
:1022C0008160CB3FDC4509F094CF80939C0291CF95
:1022D000C115FDE5DF0709F44DC088F480919C022B
:1022E0008D7FCE3F9CE5D90781F380919C028E7F44
:1022F000CF3FDC4550F380919C028360E6CFC23033
:10230000FDE5DF0709F459C008F444C080E0C3309C
:10231000DD4509F06ECF0E94F51E6BCF80919B02C8
:10232000816080939B0265CF80919B028460F9CF8E
:1023300080919C028260C9CF80919B028064F1CF22
:102340000E941D1880919B028068EBCF80919B02B8
:102350008D7FE7CF80919B02877FE3CF80919B02A7
:102360008F7DDFCF80919B028F7BDBCF80919B02A3
:10237000837FD7CF80919C028C7FA7CF80919B02D7
:1023800082FB992790F921E0922790FB82F990FB3C
:1023900083F9C7CF80919C02982F909591708E7F82
:1023A000892B90FB81F991CF0E941D1890919B027F
:1023B000892F97FB87F98058B4CF81E0ACCF81E0BB
:1023C00021CFCF93DF93EB0186319C4511F50E941D
:1023D000A01D9A81992399F08A7A91E009F490E0FE
:1023E0009093C101811109C089E20E947B1D0E9466
:1023F000EC1D80E0DF91CF91089585E3F6CF8091C9
:10240000C101811104C089E20E94821DF0CF85E3E1
:10241000FBCF81E0EFCF8EE14A9B02C08150E1F714
:102420004A9BFECF08955A9880E28A95F1F75A9A0E
:102430000895FC013BE03A95F1F720E090E080E060
:1024400031E040E14A95F1F7880F4A9B02C0816074
:10245000232742E04A95F1F7000040E14A95F1F761
:102460009F5F6913EECF90E19A95F1F799B132E051
:102470003A95F1F7000040E14A95F1F792FB992770
:1024800090F992272081920F90830895EF92FF9206
:102490000F931F93CF93DF930F92CDB7DEB71982BF
:1024A0008C017C01E60EF11C0E151F0561F481E024
:1024B0009981911180E00F90DF91CF911F910F9141
:1024C000FF90EF9008950E940B1268E0CE010196F4
:1024D0000E941912F80181938F01E6CF9093C401F5
:1024E0008093C3016093C201529A5A9A08959093BF
:1024F000C4018093C3016093C20152985A9AEA9A28
:10250000E9E6F0E080818F7C808308956150770B4D
:1025100091E001C0990F6A95EAF720E031E091114E
:1025200008C0222391F05A9A80E28A95F1F75A98CE
:102530000895492F482339F05A9A232740E24A95B3
:10254000F1F79695ECCF5A98F9CF5A98EDCFFF92C4
:102550000F931F93CF93DF93EC018C01060F111D96
:10256000C017D10731F4DF91CF911F910F91FF90E8
:102570000895F9900E94131268E08F2D0E94861230
:10258000EFCF1F920F920FB60F9211240F931F934C
:102590002F933F934F935F936F937F938F939F936B
:1025A000AF93BF93EF93FF93CF93DF930F92CDB78A
:1025B000DEB719820E940B1267E0CE0101960E94DD
:1025C0001912082F069506950695982F92959570E5
:1025D000202F2570920F292F23709695969587703E
:1025E000920F891344C08981811141C08091C20139
:1025F0008017E8F120E12A95F1F75A9A529A82E081
:102600008A95F1F700C0A8E00A9FC001112400914B
:10261000C3011091C401080F191F5A98F801658170
:10262000662321F0868197810E94A7120E941312CF
:10263000F0E1FA95F1F75A9852985A9A20E12A95C2
:10264000F1F7D80112966C911297662331F1139627
:102650008D919C910E944612D801ED91FC918823A6
:1026600011F088E001C082E080830E940B120F907D
:10267000DF91CF91FF91EF91BF91AF919F918F919A
:102680007F916F915F914F913F912F911F910F918A
:102690000F900FBE0F901F901895ED91FC91E1CF18
:1026A0000F931F93CF93DF932091C2012817190630
:1026B0000CF471C08C0193E0000F111F9A95E1F7A3
:1026C000C091C301D091C401C00FD11FF894529A98
:1026D0005A9825E02A95F1F70000982F9695957065
:1026E0008570980F892F837096959695980F092B72
:1026F0000E94131200C067E0802F0E94861280E1C2
:102700008A95F1F752985A9A4A9B17C087E090E051
:102710004A9915C06D81662321F18E819F810E94A7
:10272000461281111EC0529A5A9AE881F98182E0BC
:102730008083789482E090E00DC000C0E5CF0197DF
:1027400071F4529A5A9AE881F98181E080837894F1
:1027500081E090E0DF91CF911F910F91089500C02B
:10276000D7CF0E940B1220E22A95F1F75A98529A7D
:1027700080E18A95F1F76A81662321F08B819C8143
:102780000E94A7120E941312E881F98110827894A6
:1027900090E080E0DFCF84E090E0DCCF9093CA014E
:1027A0008093C9010895E091C901F091CA01309761
:1027B00021F00190F081E02D099480E00895E091EE
:1027C000C901F091CA01309721F00280F381E02D18
:1027D000099408952091C7013091C801281739073D
:1027E00071F09093C8018093C701E091C901F09105
:1027F000CA01309721F00680F781E02D09940895F1
:102800002091C5013091C6012817390771F09093C6
:10281000C6018093C501E091C901F091CA013097CA
:1028200021F00084F185E02D0994089585B7806832
:1028300085BF85B7806885BF0895089508950C9475
:102840001D1408950C9421140E9416140E941E1445
:102850000C941F140C94CB06089508950E94C81F71
:102860000E94B4050E9421200E94EB0D0C942214BA
:10287000BF92CF92DF92EF92FF920F931F93CF936D
:10288000DF93CDB7DEB72A970FB6F894DEBF0FBE41
:10289000CDBF0E942C140E942D140E941C060E9481
:1028A0002A14882309F45EC08CECC82E81E0D82E4F
:1028B00010E000E0B02E802F0E949105E82EF60176
:1028C000F1906F01F81609F447C08091560281FD1E
:1028D0000E9497059F2D9E2580E0FF24F394292FC9
:1028E0002F21B1F18E83BF82EF2081E009F480E0D7
:1028F00088870E94D11F8160782F9A8789874E81AF
:102900005F8168858A850E94D314F801E453FE4FE5
:102910008081F826F0820E94580E0E94D313909175
:10292000CB01891781F10E94D3138093CB012A96A2
:102930000FB6F894DEBF0FBECDBFDF91CF911F91D0
:102940000F91FF90EF90DF90CF90BF900C949A037F
:102950008F5FFF0C883019F60F5F1F4F0A3011058B
:1029600009F0A8CF8FEF89838A831B820E94D11F31
:102970008160782F9D838C8349815A816B818D8101
:102980000E94D314C8CF2A960FB6F894DEBF0FBEAC
:10299000CDBFDF91CF911F910F91FF90EF90DF900E
:1029A000CF90BF900895CF93DF93CDB7DEB72B972D
:1029B0000FB6F894DEBF0FBECDBF4F83588769872F
:1029C0007A878B871E821D8285E0FE013796DE01A5
:1029D000119601900D928A95E1F749815A816B8198
:1029E0007C818D819E812B960FB6F894DEBF0FBE41
:1029F000CDBFDF91CF910C94961AFC01808191811B
:102A00000C944D1DCF93C82F882309F469C08238D8
:102A1000C1F40E94D31381FD63C089E30E947B1D32
:102A20000E94EC1D2FEF81EE94E0215080409040F9
:102A3000E1F700C0000089E30E94821DCF910C9451
:102A4000EC1D8338A1F40E94D31380FD49C083E5B7
:102A50000E947B1D0E94EC1D2FEF81EE94E021501F
:102A600080409040E1F700C0000083E5E5CF843866
:102A7000A1F40E94D31382FD33C087E40E947B1D22
:102A80000E94EC1D2FEF81EE94E021508040904099
:102A9000E1F700C0000087E4CFCF8CEF8C0F813AC4
:102AA00090F46C2F80912801909129010E940C1FB5
:102AB000882329F08C2F0E94821D0E94EC1D8C2FF0
:102AC0000E947B1DBBCF80E28C0F883048F4C7701A
:102AD00081E001C0880FCA95EAF70E94A31DAECF1E
:102AE000CF910895882309F44BC0823871F40E9475
:102AF000D31381FF45C089E30E947B1D0E94EC1D1A
:102B000089E30E94821D0C94EC1D833859F40E94C5
:102B1000D31380FF35C083E50E947B1D0E94EC1D0E
:102B200083E5EFCF843859F40E94D31382FF28C085
:102B300087E40E947B1D0E94EC1D87E4E2CF9CEF9E
:102B4000980F913AF0F290E2980F983050F4877015
:102B500091E001C0990F8A95EAF7892F0E94A91D7B
:102B6000D2CF9BE5980F933020F490E080E00C9456
:102B7000EA13885A873120F490E080E00C94001426
:102B80000895CF93C82F0E940215C93349F42FEF3F
:102B900087EE93E0215080409040E1F700C00000B4
:102BA0008C2FCF910C947215882321F00E94A31DC5
:102BB0000C94EC1D0895882321F00E94A91D0C940B
:102BC000EC1D0895BF92CF92DF92EF92FF920F9388
:102BD0001F93CF93DF936C01D62FC72FFC01158174
:102BE00012951F70028101110E94C01D0E94991D43
:102BF000E82E882391F00023D1F08C2F807F803441
:102C000021F080E28D0F883090F082E00E94371E24
:102C10000E94991D91E0E82EE926BC2EB2949FE017
:102C2000B922EB2DF0E0EE50F84D0C94D526E12CB6
:102C3000F4CF1C2F1F70C07F11F01295107F00235E
:102C4000A9F0112359F080E28D0F883010F0D111D6
:102C500009C0812F0E94A31D0E94EC1D8D2F0E9490
:102C6000021514C0812F0E94B31DF6CF8D2F0E9434
:102C70007215112359F080E28D0F883010F0D111B8
:102C80002CC0812F0E94A91D0E94EC1D2B2D2850C5
:102C9000330B2430310520F40E94D3130E949A0391
:102CA000EE2009F477C10E94951D80FD73C1F601E5
:102CB00012820E948F1D0E941A1CC6010E94EB17EF
:102CC0000E948F1DDF91CF911F910F91FF90EF9088
:102CD000DF90CF90BF900C943B1C812F0E94B91DB8
:102CE000D3CFFC2FFF70FF2EC07FC03219F0F294BB
:102CF00080EFF822DD2369F0D13049F1002391F112
:102D0000112351F1F601858180FFA8CF8F70858353
:102D100023C0002381F0111106C00E94D31D8F290A
:102D20000E94D415B3CF1130C1F70E94D31D8F2953
:102D30000E94D91DABCF111106C00E94E21D8F2D3C
:102D40000E94DB15A3CF113009F4A0CFF6CF0023EA
:102D500029F0163008F09ACF8F2DE2CF153008F009
:102D600095CFEDCF112359F3D93349F4FFEF27EE77
:102D700033E0F15020403040E1F700C000008D2FDB
:102D80000E94721583CF8C2F837009F041C001110E
:102D90007DCF4D2F429546954770440F440F0D2F20
:102DA0000F7010E030E020E0042E04C0000F111F6F
:102DB000221F331F0A94D2F760E070E0CB01D4FFEA
:102DC0000FC06FE070E080E090E004C0660F771FF6
:102DD000881F991F4A95D2F76095709580959095B8
:102DE000C695C695C370602B712B822B932BC23076
:102DF00049F058F4C13019F00E94CC1B47CF0E9413
:102E0000BA1B44CF0E94DE1B41CF0E94B81B3ECFAD
:102E10008695002311F08C2F8170882309F436CF1A
:102E20004D2F429546954770440F440F0D2F0F705C
:102E300010E030E020E0042E04C0000F111F221F1C
:102E4000331F0A94D2F760E070E0CB01D4FF0FC0CB
:102E50006FE070E080E090E004C0660F771F881F8D
:102E6000991F4A95D2F76095709580959095C69573
:102E7000C695C370602B712B822B932BC23049F007
:102E800058F4C13019F00E94911C00CF0E947F1CA1
:102E9000FDCE0E94A31CFACE0E94F41BF7CECF7089
:102EA000002329F08C2F0E941A1C8D2F39CF8D2FD3
:102EB0000E94DB158C2F0E943B1CE8CED23F89F18B
:102EC00060F4D03FC9F0D13F29F1002309F442C09A
:102ED0001111C4CE8C2F8F7121C0D33F39F1D43F53
:102EE000A1F7002369F1CF718C2F0E941A1C63E0B7
:102EF0008C2F0E94221ECACE002341F0153008F00C
:102F0000C5CE8C2F8F710E945E1CC0CE163008F08B
:102F1000BDCEF7CF8C2F8F71002369F20E941A1C4F
:102F2000B5CE8C2F8F710023C9F3C5CF002329F0B4
:102F30008C2F8F710E94051CA9CE0E94001CA6CE6A
:102F400081E00E94371E123008F4A0CE82E00E9479
:102F5000371E9CCE112359F0D93309F010CF8FEFD3
:102F600097EEE3E081509040E040E1F706CF8C2FF0
:102F70008F71A1CF4C2F4F706D2FC6010E949C0204
:102F80000E94301B83CE4C2F4F706D2FC6010E94C4
:102F9000A2037CCEDF91CF911F910F91FF90EF9014
:102FA000DF90CF90BF9008950F931F93CF93DF933F
:102FB000EC01688179818A810E94571D8C010E94F1
:102FC000B51C0E94B71BB801CE01DF91CF911F91B4
:102FD0000F910C94E215CF93DF93EC018B819C81D0
:102FE000892B29F08881998189238F3F59F4DF91BA
:102FF000CF910895CE010E94D417CE01DF91CF91D9
:103000000C942D03CE010E9452038111F3CF0E9434
:10301000991D882361F38A81882349F382E0DF9137
:10302000CF910C94371E0E94C01D0E94D01D0C949D
:10303000EC1D0E94891D0C9413180E94B01D0C9465
:103040001918E92FE295EF70E250EE3070F4F0E0DD
:10305000EE5FF74D0C94D526803F19F020F4883EA2
:1030600020F481E00895843FE1F380E00895883EF4
:10307000C0F3813FD1F7F5CF93FB882780F90895FE
:103080000E944D1D0C942118CF93DF9300D000D0E7
:103090000F92CDB7DEB70F900F900F900F900F905B
:1030A000DF91CF910895CF93DF9300D000D000D06F
:1030B000CDB7DEB726960FB6F894DEBF0FBECDBFF4
:1030C000DF91CF9108951F93CF93DF93C091D701E4
:1030D00016E08091D8018C1304C0DF91CF911F912D
:1030E0000895D0E01C9FF0011D9FF00D1124E752C0
:1030F000FE4F4081518162817381848195810E945C
:1031000053182196C770E5CF4091090250910A02E9
:1031100060910B0270910C0280910D0290910E0251
:103120000C9453181F93CF93DF9380910E02807FEE
:10313000A9F480910B02882389F08091D701C09176
:10314000D8016091090270910A02A0910C02B0911D
:103150000D02D62FD72316E0C81304C0DF91CF91FC
:103160001F91089590E0109711F0DF3F19F4019638
:103170008770F2CF189F9001199F300D1124F9012B
:10318000E752FE4F41814713F2CF40814613EFCF04
:1031900042814111ECCF438154814A1B5B0B483C77
:1031A000510528F780910E028F70806180930E0286
:1031B000F901E252FE4F80818F708061808389E047
:1031C00092E00E94EB17DF91CF911F910C9463184E
:1031D000AF92BF92CF92DF92EF92FF920F931F9325
:1031E000CF93DF93CDB7DEB761970FB6F894DEBF0C
:1031F0000FBECDBF8C0185E0F801DE011D96019068
:103200000D928A95E1F7F80140815181E28089E0D1
:10321000C82E82E0D82E60910C0270910D026115CB
:10322000710509F461C19091090220910A02892F68
:1032300082238F3F09F458C1A380B480F0900B0221
:10324000F501E61BF70BFF2009F4FCC080910E028C
:10325000382F307FE83CF10508F0B2C0311179C059
:10326000FE2C251323C0941321C0E1101FC08F70C2
:10327000806180930E020E948418C6010E94EB17A1
:1032800080910E02F80185838F2D61960FB6F89418
:10329000DEBF0FBECDBFDF91CF911F910F91FF9089
:1032A000EF90DF90CF90BF90AF900895AB2829F0BA
:1032B000842F85238F3F09F033C180E0F82FF17010
:1032C000DF2E80FF3CC08091D7012091D80136E0ED
:1032D000821315C04D875E878D859E850E944D1D8A
:1032E000292F22952F702230F0F0243018F59F708E
:1032F000F1F0F8019581907FD1F4D12C1EC090E0BF
:10330000389FF001399FF00D1124E752FE4F618183
:10331000651306C06081641303C062816E110FC023
:1033200001968770D5CF9F7011F0882331F3805EAE
:10333000883018F3C8010E94EB17FD2CA5CFEE20B2
:1033400009F4A2CF80910E02816080930E02F12CCD
:103350009BCF251306C0941304C0F801EE2009F496
:103360008DC04D875E878D859E850E94401888237D
:1033700019F1EE2009F180910E02803270F0209157
:10338000090230910A0238872F831986BB86AA86E4
:103390008C87CE0107960E94EB1786E0F801A9E022
:1033A000B2E001900D928A95E1F70E9492180E9476
:1033B0008418FF24F39468CFC8010E94EB17F9CF5B
:1033C000311113C07A2DB98AA88A6E2D89890E947D
:1033D000441889E092E00E94EB1786E0F601119212
:1033E0008A95E9F70E948418B2CF25130FC0941371
:1033F0000DC0E1100BC0F8018583C8010E94EB17D6
:1034000086E0F60111928A95E9F73ECF4D875E87F7
:103410008D859E850E944018882371F2EE2061F20E
:1034200080910E02803208F4B8CF209109023091C9
:103430000A023A8329831B82BD82AC828E83CE012D
:103440000196A9CFE83CF10508F041C0FE2CEE2022
:1034500009F4B2CF25132AC0941328C080910E021C
:1034600080FD1BC0982F907FC1F0F8018583903FAD
:1034700031F0982F907F905F8F70892B8583C801E2
:103480000E94EB1786E0F801A9E0B2E001900D92EE
:103490008A95E1F70E948418F7CE86E0F801A9E04A
:1034A000B2E001900D928A95E1F7EECE4D875E87EE
:1034B0008D859E850E94401881116FCF80910E02EC
:1034C000816080930E02C8010E94EB17DDCE7A2D39
:1034D000B98AA88A6E2D89890E94441886E0F6016F
:1034E00011928A95E9F7D6CFEE2009F465CF4D8782
:1034F0005E878D859E850E944018F82E882309F4EA
:103500005BCF86E0F801A9E0B2E001900D928A95C8
:10351000E1F789E092E00E94FD140E949218BACF70
:1035200081E08E25CBCE88EC90E008951F93CF9359
:10353000DF93CDB7DEB72C970FB6F894DEBF0FBE82
:10354000CDBF4F83588769877A878B879C87CE0149
:1035500007960E94E818882369F08A859B85892B45
:1035600039F04F815885842F85238F3F09F071C032
:1035700016E05FC086E0FE013796DE0111960190ED
:103580000D928A95E1F78A859B85892B89F38F8136
:10359000988589238F3F61F32091D80130E0C901DC
:1035A0000196877099274091D7014817190671F441
:1035B0000E941D181092D8011092D70186E0E9E010
:1035C000F2E0DF011D928A95E9F7D2CF96E0929F53
:1035D000D001939FB00D1124A752BE4FFE0131962A
:1035E00001900D929A95E1F78093D8010E9463189B
:1035F000BFCF819FC001112487529E4F0E94E818BF
:103600008823E9F0E091D7011E9FF0011124E752D1
:10361000FE4F4081518162817381848195810E9436
:1036200053188091D70190E0019687709927809375
:10363000D7018091D7019091D8018913DACF2C96C8
:103640000FB6F894DEBF0FBECDBFDF91CF911F91B3
:10365000089569857A858B859C850E94531888CF4B
:10366000EF92FF920F931F93CF93DF938C01892BDF
:1036700081F0F12CEE24E394E8012196F801849185
:10368000843770F4843008F05FC08130B1F082304C
:10369000A1F1DF91CF911F910F91FF90EF900895CD
:1036A000853709F44CC008F43DC09CE7980F90376B
:1036B00080F78F770E94721549C00E5F1F4FFE0181
:1036C000849190E2980F983060F48770FE2D01C0CD
:1036D000FF0F8A95EAF78F2F0E94C31D0E94EC1DF1
:1036E00002C00E9402158F2D815030F2EFE9FFE0F9
:1036F0003197F1F700C00000F7CF0E5F1F4FFE01BA
:10370000849190E2980F983050F48770FE2D01C09C
:10371000FF0F8A95EAF78F2F0E94C91DDFCF0E9405
:103720007215E1CF0E5F1F4FFE01C491C150D8F258
:103730008FE99FE00197F1F700C00000F7CF0E5F1F
:103740001F4FFE01F490CFCF0E9402158E01CBCF08
:1037500008950C94A81B0E94A91B609345027093C6
:10376000460280934702909348020C9413180895E0
:103770000C94AB1B0F931F930091450210914602CE
:103780002091470230914802602B712B822B932BA2
:103790001F910F910C94AB1B0F931F930091450247
:1037A0001091460220914702309148026023712314
:1037B000822393231F910F910C94AB1B0F931F93A4
:1037C0000091450210914602209147023091480233
:1037D00060277127822793271F910F910C94AB1BB1
:1037E0000C94A81B0C94F01B0E94F21B60934102E6
:1037F0007093420280934302909344020C941318F6
:1038000060E070E0CB010C94F41B0F931F9341E038
:1038100050E060E070E08A019B0104C0000F111FBE
:10382000221F331F8A95D2F7C901B8011F910F914A
:103830000C94F41B0F931F9341E050E060E070E0A4
:1038400004C0440F551F661F771F8A95D2F78091D9
:10385000410290914202A0914302B09144028A0138
:103860009B01082B192B2A2B3B2BC901B8011F9157
:103870000F910C94F41B0F931F9341E050E060E014
:1038800070E004C0440F551F661F771F8A95D2F75A
:10389000CB01BA0160957095809590950091410299
:1038A000109142022091430230914402602371231F
:1038B000822393231F910F910C94F41B0F931F935A
:1038C00041E050E060E070E004C0440F551F661F07
:1038D000771F8A95D2F78091410290914202A09180
:1038E0004302B09144028A019B01082719272A2725
:1038F0003B27C901B8011F910F910C94F41B0F9342
:103900001F93009141021091420220914302309195
:103910004402602B712B822B932B1F910F910C94DF
:10392000F41B0F931F9300914102109142022091CA
:1039300043023091440260237123822393231F9119
:103940000F910C94F41B0F931F930091410210915F
:10395000420220914302309144026027712782275E
:1039600093271F910F910C94F41B0895990F990FB1
:10397000990F890F982F977041E001C0440F9A95D5
:10398000EAF786958695869595E0899FF001112442
:10399000E15FFD4F30E020E070E05191DF011197D1
:1039A000CB01022E02C0969587950A94E2F78170AA
:1039B00081958527842385278C932F5F3F4F253062
:1039C000310559F70895990F990F990F890F982F7D
:1039D000977086958695869525E0829FF001112443
:1039E000E15FFD4F50E040E080E0219130E0092EA2
:1039F00002C0369527950A94E2F721703327042EEA
:103A000001C0220F0A94EAF7822B4F5F5F4F4530C7
:103A1000510559F70895BF92CF92DF92EF92FF922E
:103A20000F931F93CF93DF938C01C0904102D090EE
:103A30004202E0904302F09044028091450290914E
:103A40004602A0914702B0914802C82AD92AEA2A20
:103A5000FB2ACFE1D0E0BC2ED701C6010C2E04C05A
:103A6000B695A795979587950A94D2F780FD0EC0D5
:103A7000219788F7B12C8B2DDF91CF911F910F915A
:103A8000FF90EF90DF90CF90BF900895B8018C2FFA
:103A90000E94C003019761F3EECFCF93DF93EC0157
:103AA0000E940B1DBE01DF91CF910C94C0031F93A8
:103AB000CF93DF93EB019091D601992331F0CB01A5
:103AC000DF91CF911F910C944D1D882379F0CB018C
:103AD0000E940B1D182F682FCE010E94B61CBE013C
:103AE000812FDF91CF911F910C94C003CB010E94D5
:103AF000E31C182FF4CF682F8091280190912901A1
:103B00000C94421F682F80912801909129010C94F8
:103B1000441F80912801909129010C94461F8091A7
:103B2000490285958595859508958091490287700C
:103B3000089590914902977081E009F480E008951A
:103B400080915502089590915502892B80935502DA
:103B50000895809590915502982390935502089569
:103B600010925502089590915402892B809354022B
:103B7000089580959091540298239093540208954B
:103B800010925402089590915302892B809353020E
:103B9000089580959091530298239093530208952D
:103BA00010925302089580914A02089508950C944A
:103BB000D61D90914A02981721F080934A020C94E6
:103BC000D71D089580914A02882329F010924A0255
:103BD00080E00C94D71D0895E0912801F09129010F
:103BE000809155028083E0912801F0912901808124
:103BF00090915402892B8083E0912801F091290152
:103C0000808190915302892B808390914A0299235D
:103C100081F0E0912801F09129018081892B808336
:103C200080912801909129010E94FA1E81110E9421
:103C3000E21D80912801909129010C94DF130895D1
:103C40000C941F1E98E0899F90011124622B6093B1
:103C500049020E941A1C8091490285958595859597
:103C60000C94201E1092490280E00C94201E90912A
:103C700049028095892380934902282F277071F487
:103C8000282F082E000C330B9217130639F0859558
:103C9000859585950E943B1C0C94321E089590E0FA
:103CA00080E00E94832721E08C3E9E4F09F020E0B7
:103CB000822F089582E090E00C94752783E090E0D5
:103CC0000C947527CF9384E090E00E947527C82F4D
:103CD00081E290E00E947527982F8C2FCF91089554
:103CE000CF93C92F682F84E090E00E9489276C2F22
:103CF00081E290E0CF910C948927AB01BC018FE069
:103D000090E00C949B27AB01BC0183E190E00C9404
:103D10009B2760E070E0CB010C94831E60E070E0B4
:103D2000CB010E947D1E0C94891E6CEE7EEF90E00C
:103D300080E00E94A72760E082E090E00E9489274F
:103D400060E083E090E00E94892710924502109283
:103D50004602109247021092480260E084E090E030
:103D60000E94892760E081E290E00E94892760E05C
:103D700085E090E00E94892760E086E090E00E9464
:103D800089276FEF87E090E00E94892740E050E0AC
:103D9000BA0188E090E00E949B2760E08DE090E00F
:103DA0000E94892740E050E0BA0188E190E00E943B
:103DB0009B2760E087E190E00E94892740E050E087
:103DC000BA018CE190E00E949B2760E080E290E0E5
:103DD0000E94892740E050E0BA0188E190E00E940B
:103DE0009B270C948E1E0C94951E682F8EE090E0FD
:103DF0000C9489279C012E5F3F4FAC01485F5F4FB9
:103E000080E02417350709F40895F90191919F0185
:103E10009923B9F38F5FF5CF662349F0FC01329601
:103E200008962191261729F0E817F907D1F780E0C5
:103E3000089581E008959C01FC0132969FEF80E097
:103E40004191461751F09F3F19F4411101C0982F3D
:103E50008F5F8630A9F79F3F09F40895290F311D20
:103E600097FD3A95F90162830895FC013296089610
:103E70002191261303C0DF0111971C92E817F9075F
:103E8000B9F708950C941B1F0C94351F029626E079
:103E9000FC0111922A95E9F70895089508950C946C
:103EA0004E1F0E944F1F8091A102843049F1109251
:103EB000570288E190E020E40FB6F894A89580932B
:103EC00060000FBE2093600080E00E949A030E9471
:103ED0004F1F83B7817F846083BF83B7816083BFB7
:103EE0007894889583B78E7F83BF0FB6F894A89592
:103EF00080916000886180936000109260000FBE26
:103F000008950895CF930E944D1F0E941C060E94A1
:103F1000811FC0E08C2F0E949105811105C0CF5FE9
:103F2000CA30C1F7CF91089581E0FCCF08950C9479
:103F3000961F0E941D180E94D3130E949A030C948E
:103F4000971F1F921FB61F9211248F939F93AF93B9
:103F5000BF9380915702811113C080919702909175
:103F60009802A0919902B0919A024196A11DB11DAB
:103F70008093970290939802A0939902B0939A022B
:103F8000BF91AF919F918F911F901FBE1F90189569
:103F900082E084BD93E095BD9AEF97BD80936E005B
:103FA00008952FB7F8948091970290919802A0916C
:103FB0009902B0919A022FBF08959C014FB7F894CF
:103FC0008091970290919802A0919902B0919A02E3
:103FD0004FBF821B930B089578941F921FB61F92B8
:103FE00011248F939F93AF93BF93809197029091E9
:103FF0009802A0919902B0919A020196A11DB11D5B
:104000008093970290939802A0939902B0939A029A
:10401000BF91AF919F918F911F901FBE1F901895D8
:1040200087E797E7909301088093000888E19AE07A
:104030000FB6F894A895809360000FBE909360002F
:10404000FFCF0E944F1E811102C00E94F31E0E94EA
:104050005A1E809356020E94621E90939C02809387
:104060009B020E945E1E682F70E090E080E00E943C
:10407000B81B60914102709142028091430290917D
:1040800044020C94F21B80916002089508950895F3
:10409000CF93DF93EC0181E08093E9008FEF909163
:1040A000E800815095FD06C095ED9A95F1F7000066
:1040B0008111F5CF8091E80085FF14C050E040E009
:1040C00068E070E0CE010E94EE218091E8008E77DA
:1040D0008093E80088E0FE01A8E5B2E001900D922F
:1040E0008A95E1F7DF91CF91089508958091A0021C
:1040F000811109C00E947E230E94DB238091E2008F
:1041000084608093E20008951092A00208950895BB
:1041100008950C94991F42E061EC81E00C94FA221E
:104120008091A302833009F45FC030F48130C1F183
:10413000823009F49BC008958A3009F487C08B301F
:1041400009F46DC0893009F04EC08091A20281321D
:1041500009F049C08091A6029091A702892B09F02D
:1041600042C08091E800877F8093E8008091E8005A
:1041700082FF35C09091F3008091F200029729F4FC
:104180008091F1008B7F813021F48091F100809348
:1041900060028091E8008B778093E8000C942E23D6
:1041A0008091A202813AF9F48091E800877F8093A0
:1041B000E8008091A6029091A702892B61F468E043
:1041C00088E592E070E00E943D228091E8008B77C4
:1041D0008093E800089560E090E080E0F3CF809164
:1041E000A1028111C3CF08958091A202813AD9F72B
:1041F0008091A6029091A702892BA9F78091E800EF
:10420000877F8093E8008091E80080FFFCCF809159
:1042100034018093F1008091E8008E77BDCF8091CA
:10422000A202813201F78091A6029091A702892B08
:10423000D1F68091E800877F8093E8000E942E23CA
:104240008091A402809334010C941D188091A202E5
:10425000813249F68091E800877F8093E8000E94D0
:104260002E238091A5028093610208958091A2027D
:10427000813A09F0B8CF8091E800877F8093E80009
:104280008091E80080FFFCCF80916102C2CF84B7AB
:10429000877F84BF0FB6F894A895809160008861ED
:1042A00080936000109260000FBE80E890E00FB62F
:1042B000F89480936100909361000FBE0E942414D3
:1042C0000E947E230E94DB238091E2008460809321
:1042D000E20078940E9464260E942E148AE291E003
:1042E0000E94CE138091A102853039F00E943814CB
:1042F0000E942C140E942D14F5CF0E94511F809112
:104300009F02882379F30E94821F882359F30E9419
:10431000D821E8CF0C948C21292F33272330310565
:10432000C9F058F421303105C9F122303105D9F1F5
:1043300090E080E030E020E020C02132310539F10A
:1043400022323105A9F780E490E026E634E0672BBD
:1043500079F713C099278130910599F0009741F0C2
:104360008230910589F0039719F7E6E0F4E002C086
:10437000EEE2F4E0849190E09F01FA013183208322
:104380000895ECE1F4E0F6CFECE0F4E0F3CF89E05F
:1043900090E024E434E0672B59F6EFCF82E190E01F
:1043A00024E534E0EACF82E290E022E334E0E5CF96
:1043B00080E189BD82E189BD09B400FEFDCF809115
:1043C000D8008F7D8093D8008091E0008260809338
:1043D000E0008091E00081FDFCCF0895AF92BF9294
:1043E000CF92DF92FF920F931F93CF93DF936C01D5
:1043F000EB018A010E944D23F82E811123C0011583
:10440000110539F0F80180819181C81BD90BC80EC4
:10441000D91EB12CA12C2097A9F08091E80085FD30
:1044200022C08091E8008E778093E8000115110585
:10443000A1F0F80180819181A80EB91EB182A082FD
:1044400085E0F82E8F2DDF91CF911F910F91FF9076
:10445000DF90CF90BF90AF9008950E944D238823A6
:10446000D1F2F82EEFCFF60181916F018093F10028
:104470002197FFEFAF1ABF0ACECFFC018091A802AF
:104480009091A90286179707A0F06115710529F48C
:104490009091E8009E779093E80090E06115710597
:1044A00051F4911108C08091E80082FF34C080E08F
:1044B0000895BC01F2CF8091A1028823C1F185301B
:1044C000C1F18091E80083FD30C08091E80082FD59
:1044D000EACF8091E80080FFE1CF8091F300209146
:1044E000F200382F6115710519F02830310558F0A8
:1044F00091E02830310509F090E02091E8002E7716
:104500002093E800CBCF81918093F1006150710935
:104510002F5F3F4FE7CF8091A102882341F0853084
:1045200041F08091E80083FFBECF81E0089582E0F2
:10453000089583E00895FC018091A8029091A9025A
:1045400086179707A0F06115710529F48091E8009E
:104550008E778093E80090E06115710551F4911118
:1045600008C08091E80082FF35C080E00895BC015A
:10457000F2CF8091A1028823C9F18530C9F18091E1
:10458000E80083FD31C08091E80082FDEACF809190
:10459000E80080FFE1CF8091F3002091F200382FF6
:1045A0006115710519F02830310558F091E0283077
:1045B000310509F090E08091E8008E778093E80063
:1045C000CBCF84918093F1003196615071092F5FB8
:1045D0003F4FE6CF8091A102882341F0853041F022
:1045E0008091E80083FFBDCF81E0089582E00895C7
:1045F00083E00895982F973028F08F708093E9001A
:1046000081E008959093E900242F762F50E09817C9
:1046100031F07091EC002091ED005091F00021FDFF
:1046200002C09F5FE8CF3091EB003E7F3093EB00FC
:104630003091ED003D7F3093ED003091EB00316023
:104640003093EB007093EC002093ED005093F0005A
:104650002091EE0027FDE5CF80E008958091A20231
:1046600087FF13C08091E80082FF06C08091E800B8
:104670008B778093E80004C08091A1028111F2CF72
:1046800008958091A1028823D9F38091E80080FFEA
:10469000F8CF8091E8008E77ECCF2091E400309144
:1046A000E50095E6A9012091EC00822F817020FFA2
:1046B00006C08091E80080FF06C080E00895209148
:1046C000E80022FD1AC08091A102882389F085307C
:1046D00089F08091EB0085FD0FC02091E4003091BE
:1046E000E50042175307F9F29150E1F684E008958E
:1046F00082E0089583E0089581E008950E94EC230C
:104700000E94F423E0EEF0E0808181608083E8ED98
:10471000F0E080818F77808319BCA7EDB0E08C91A9
:104720008E7F8C9380818F7E80831092A00208956B
:104730000F931F93CF93DF930E94EC230E94F423E7
:10474000C8EDD0E088818F778883888180688883EE
:1047500088818F7D888319BC1092A10210929D02DE
:1047600010929F0210929E0200EE10E0F8018081EC
:104770008B7F808388818160888342E060E080E075
:104780000E94FA22E1EEF0E080818E7F8083E2EEEB
:10479000F0E0808181608083808188608083F8017F
:1047A00080818E7F8083888180618883DF91CF9133
:1047B0001F910F910895E8EDF0E080818F7E808356
:1047C000E7EDF0E080818160808384E082BF81E05A
:1047D0008093A0020C949823E8EDF0E080818E7F16
:1047E00080831092E20008951092DA001092E100A6
:1047F00008951F920F920FB60F9211242F933F939B
:104800004F935F936F937F938F939F93AF93BF93D8
:10481000EF93FF938091E10082FF0BC08091E20053
:1048200082FF07C08091E1008B7F8093E1000E94AE
:1048300063268091DA0080FF19C08091D80080FF44
:1048400015C08091DA008E7F8093DA008091D900C4
:1048500080FF96C080E189BD82E189BD09B400FE78
:10486000FDCF81E08093A1020E9476208091E1003B
:1048700080FF19C08091E20080FF15C08091E200A6
:104880008E7F8093E2008091E20080618093E2005D
:104890008091D80080628093D80019BC85E0809315
:1048A000A1020E9488208091E10084FF2BC08091AA
:1048B000E20084FF27C080E189BD82E189BD89B51E
:1048C000982F917080FFFBCF8091D8008F7D8093CF
:1048D000D8008091E1008F7E8093E1008091E2001A
:1048E0008F7E8093E2008091E20081608093E200FD
:1048F00080919D02882309F449C084E08093A1023D
:104900000E9489208091E10083FF29C08091E2000C
:1049100083FF25C08091E100877F8093E10082E0E2
:104920008093A10210929D028091E1008E7F80937E
:10493000E1008091E2008E7F8093E2008091E200AE
:1049400080618093E20042E060E080E00E94FA2211
:104950008091F00088608093F0000E948720FF9192
:10496000EF91BF91AF919F918F917F916F915F91E7
:104970004F913F912F910F900FBE0F901F90189560
:1049800019BC1092A1020E94842070CF8091E30094
:1049900087FD93E09093A102B3CF1F920F920FB6C1
:1049A0000F9211242F933F934F935F936F937F93B5
:1049B0008F939F93AF93BF93CF93DF93EF93FF9327
:1049C000D091E900DF708091EC00C82FC17080FDAC
:1049D000C0E81092E9008091F000877F8093F0009A
:1049E00078940E9411251092E9008091F00088606F
:1049F0008093F000CD2BCF70C093E900FF91EF9131
:104A0000DF91CF91BF91AF919F918F917F916F91E6
:104A10005F914F913F912F910F900FBE0F901F907C
:104A200018951F93CF93DF93CDB7DEB7AA970FB634
:104A3000F894DEBF0FBECDBF82EA92E02091F10074
:104A4000FC012193CF01F2E08A3A9F07B9F70E9457
:104A500090208091E80083FF1EC18091A202909176
:104A6000A3029A3008F017C1E92FF0E0E05FF74D9C
:104A70000C94D526803899F0823809F00CC18091C9
:104A8000A6028F70873008F006C18093E9008091FC
:104A9000EB0085FB882780F91092E90006C0809121
:104AA0009E0290919F02911182609091E800977F01
:104AB0009093E8008093F1001092F1008091E8005B
:104AC0008E77E5C0882309F4D3C0823009F0E3C0B3
:104AD0008091A4028111D6C08091A6028F702FEF21
:104AE000280F263008F0D7C08093E9002091EB0012
:104AF00020FFC8C0933031F48091EB008062809336
:104B0000EB00C0C09091EB0090619093EB0021E02E
:104B100030E001C0220F8A95EAF72093EA00109254
:104B2000EA008091EB008860EACF8111B4C0109157
:104B3000A4021F778091E3008078812B8093E300AB
:104B40008091E800877F8093E8000E942E23809167
:104B5000E80080FFFCCF8091E30080688093E30051
:104B600082E0111183E08093A10295C080588230C9
:104B700008F091C08091A4029091A5028C3D23E0A1
:104B80009207A1F583E08A838AE289834FB7F8947C
:104B9000DE01139620E03EE051E2E32FF0E0509377
:104BA0005700E49120FF03C0E295EF703F5FEF7084
:104BB0008E2F90E0EA30C0F0C7968D939D932F5FC3
:104BC000243159F74FBF8091E800877F8093E80038
:104BD0006AE270E0CE0101960E943D228091E800D9
:104BE0008B778093E80057C0C096E7CF6091A6020C
:104BF0007091A702AE014F5F5F4F0E948A21BC01F6
:104C0000892B09F448C09091E800977F9093E800C1
:104C100089819A810E949B22E1CF8038E1F58091C1
:104C2000E800877F8093E80080919D028093F100E7
:104C300045CF811130C09091A402923060F58091EF
:104C4000E800877F8093E80090939D020E942E23C6
:104C500080919D02882311F084E005C08091E300DB
:104C600087FDFACF81E08093A1020E948B2013C0C0
:104C70008091A402813079F481E0933009F080E0E2
:104C800080939F021092E9008091E800877F8093D3
:104C9000E8000E942E238091E80083FF0AC08091E3
:104CA000E800877F8093E8008091EB00806280932A
:104CB000EB00AA960FB6F894DEBF0FBECDBFDF9112
:104CC000CF911F9108950895CF938091A1028823D9
:104CD000A1F0C091E900CF709091EC00892F817014
:104CE00090FD80E8C82B1092E9008091E80083FDD8
:104CF0000E941125CF70C093E900CF910895991BB0
:104D000079E004C0991F961708F0961B881F7A95C2
:104D1000C9F780950895AA1BBB1B51E107C0AA1FC4
:104D2000BB1FA617B70710F0A61BB70B881F991F4C
:104D30005A95A9F780959095BC01CD01089597FBF0
:104D4000072E16F4009407D077FD09D00E948B2619
:104D500007FC05D03EF4909581959F4F089570957E
:104D600061957F4F0895A1E21A2EAA1BBB1BFD017E
:104D70000DC0AA1FBB1FEE1FFF1FA217B307E4073A
:104D8000F50720F0A21BB30BE40BF50B661F771F92
:104D9000881F991F1A9469F7609570958095909572
:104DA0009B01AC01BD01CF010895EE0FFF1F0590DF
:104DB000F491E02D09940E94E326332312F48A1B18
:104DC0009B0B0C94F426A29FB001B39FC001A39F3C
:104DD000700D811D1124911DB29F700D811D112434
:104DE000911D08950E94E326B7FF0895821B930B3F
:104DF00008950E94E326A59F900DB49F900DA49F57
:104E0000800D911D11240895B7FF0C94F9260E947E
:104E1000F926821B930B08958F929F92AF92BF92B7
:104E2000CF92DF92EF92FF92CF93DF93EC016881F4
:104E300079818A819B81611571058105910521F434
:104E400064E279ED8BE597E02DE133EF41E050E04E
:104E50000E94BD2749015A019B01AC01A7EAB1E4B8
:104E60000E94F9266B017C01ACEEB4EFA501940120
:104E70000E940727DC01CB018C0D9D1DAE1DBF1DBF
:104E8000B7FF03C00197A109B04888839983AA831B
:104E9000BB839F77DF91CF91FF90EF90DF90CF9012
:104EA000BF90AF909F908F9008950E940C27089517
:104EB00080E091E00E940C270895B0E0A0E080938C
:104EC000000190930101A0930201B09303010895A2
:104ED000FC014150504030F001900616D1F7319757
:104EE000CF010895882799270895F999FECF92BD9B
:104EF00081BDF89A992780B50895A6E1B0E044E015
:104F000050E00C94AF27A8E1B0E042E050E00C94F0
:104F1000AF27262FF999FECF92BD81BDF89A019750
:104F200000B4021639F01FBA20BD0FB6F894FA9AF1
:104F3000F99A0FBE08950396272F0E948A270E9490
:104F40008927252F0E948A27242F0C948A270196CF
:104F5000272F0E948A270C948927DC01CB01FC01B2
:104F6000F999FECF06C0F2BDE1BDF89A319600B4C2
:104F70000D9241505040B8F70895052E97FB1EF44E
:104F800000940E94D42757FD07D00E94B32607FC47
:104F900003D04EF40C94D42750954095309521952C
:104FA0003F4F4F4F5F4F0895909580957095619555
:104FB0007F4F8F4F9F4F0895F894FFCF5C0F630F83
:104FC0006A0F6F0F740F790F7E0F830F880F8D0F8D
:104FD000920F970F9B0FA00FA30FA60FA90FAC0F57
:104FE000AE0FB10F19161916711671164616461620
:104FF00046164616C3164F175E175E17BA174616A3
:105000004616C3172C182C183518351837183518AC
:10501000351835182C182C183C18351835183C182C
:105020003A2562254B2662254B269525B6254B262B
:045030000D2619260A
:10503400010000000177010078010578017D010875
:105044007E01000000010102000800080801191A8D
:105054001B1C1D1E1F2021224B02432048204620DA
:105064004720752001943331F73236F6F56697C63A
:1050740034350000000000000102020202060606A8
:105084000909090909090F0F0F0F0F0F1515151835
:105094001919191919191919191923242525252537
:0250A4002525C0
:00000001FF
